{
  "_format": "hh-sol-artifact-1",
  "contractName": "Challenge3",
  "sourceName": "contracts/Challenge3.sol",
  "abi": [
    {
      "inputs": [],
      "name": "hasWon",
      "outputs": [
        {
          "internalType": "bool",
          "name": "",
          "type": "bool"
        }
      ],
      "stateMutability": "view",
      "type": "function"
    },
    {
      "inputs": [
        {
          "internalType": "uint256",
          "name": "_x",
          "type": "uint256"
        }
      ],
      "name": "otherFunction",
      "outputs": [],
      "stateMutability": "nonpayable",
      "type": "function"
    },
    {
      "inputs": [
        {
          "internalType": "uint256",
          "name": "_x",
          "type": "uint256"
        }
      ],
      "name": "win",
      "outputs": [],
      "stateMutability": "nonpayable",
      "type": "function"
    }
  ],
  "bytecode": "0x608060405234801561001057600080fd5b50610240806100206000396000f3fe608060405234801561001057600080fd5b50600436106100415760003560e01c806320a9158d146100465780635bc60cfc14610064578063673b6d9114610080575b600080fd5b61004e61009c565b60405161005b91906101a7565b60405180910390f35b61007e60048036038101906100799190610160565b6100ad565b005b61009a60048036038101906100959190610160565b610138565b005b60008054906101000a900460ff1681565b3073ffffffffffffffffffffffffffffffffffffffff1663673b6d91826040518263ffffffff1660e01b81526004016100e691906101c2565b600060405180830381600087803b15801561010057600080fd5b505af1925050508015610111575060015b6101345760016000806101000a81548160ff021916908315150217905550610135565b5b50565b80600681141561014757600080fd5b5050565b60008135905061015a816101f3565b92915050565b60006020828403121561017257600080fd5b60006101808482850161014b565b91505092915050565b610192816101dd565b82525050565b6101a1816101e9565b82525050565b60006020820190506101bc6000830184610189565b92915050565b60006020820190506101d76000830184610198565b92915050565b60008115159050919050565b6000819050919050565b6101fc816101e9565b811461020757600080fd5b5056fea2646970667358221220fe810686160e3f638246bb500a9c5e5f6af82bad4067fff6c518a591e81586e864736f6c63430008040033",
  "linkReferences": {},
  "deployedLinkReferences": {}
}