{"contracts/Challenge5.sol":{"UserSystem":{"abi":[{"inputs":[],"name":"activate","outputs":[],"stateMutability":"nonpayable","type":"function"}],"devdoc":{"kind":"dev","methods":{},"version":1},"evm":{"bytecode":{"linkReferences":{},"object":"6080604052348015600f57600080fd5b5060c78061001e6000396000f3fe6080604052348015600f57600080fd5b506004361060285760003560e01c80630f15f4c014602d575b600080fd5b60336035565b005b60016000803373ffffffffffffffffffffffffffffffffffffffff1673ffffffffffffffffffffffffffffffffffffffff16815260200190815260200160002060000160006101000a81548160ff02191690831515021790555056fea26469706673582212203cf9c9ad8619f4a5a94b6298d52f45af5df70f27f4e855cbacf2ab7e05e2554364736f6c63430008040033","opcodes":"PUSH1 0x80 PUSH1 0x40 MSTORE CALLVALUE DUP1 ISZERO PUSH1 0xF JUMPI PUSH1 0x0 DUP1 REVERT JUMPDEST POP PUSH1 0xC7 DUP1 PUSH2 0x1E PUSH1 0x0 CODECOPY PUSH1 0x0 RETURN INVALID PUSH1 0x80 PUSH1 0x40 MSTORE CALLVALUE DUP1 ISZERO PUSH1 0xF JUMPI PUSH1 0x0 DUP1 REVERT JUMPDEST POP PUSH1 0x4 CALLDATASIZE LT PUSH1 0x28 JUMPI PUSH1 0x0 CALLDATALOAD PUSH1 0xE0 SHR DUP1 PUSH4 0xF15F4C0 EQ PUSH1 0x2D JUMPI JUMPDEST PUSH1 0x0 DUP1 REVERT JUMPDEST PUSH1 0x33 PUSH1 0x35 JUMP JUMPDEST STOP JUMPDEST PUSH1 0x1 PUSH1 0x0 DUP1 CALLER PUSH20 0xFFFFFFFFFFFFFFFFFFFFFFFFFFFFFFFFFFFFFFFF AND PUSH20 0xFFFFFFFFFFFFFFFFFFFFFFFFFFFFFFFFFFFFFFFF AND DUP2 MSTORE PUSH1 0x20 ADD SWAP1 DUP2 MSTORE PUSH1 0x20 ADD PUSH1 0x0 KECCAK256 PUSH1 0x0 ADD PUSH1 0x0 PUSH2 0x100 EXP DUP2 SLOAD DUP2 PUSH1 0xFF MUL NOT AND SWAP1 DUP4 ISZERO ISZERO MUL OR SWAP1 SSTORE POP JUMP INVALID LOG2 PUSH5 0x6970667358 0x22 SLT KECCAK256 EXTCODECOPY 0xF9 0xC9 0xAD DUP7 NOT DELEGATECALL 0xA5 0xA9 0x4B PUSH3 0x98D52F GASLIMIT 0xAF 0x5D 0xF7 0xF 0x27 DELEGATECALL 0xE8 SSTORE 0xCB 0xAC CALLCODE 0xAB PUSH31 0x5E2554364736F6C6343000804003300000000000000000000000000000000 "},"gasEstimates":{"creation":{"codeDepositCost":"39800","executionCost":"93","totalCost":"39893"},"external":{"activate()":"21084"}},"methodIdentifiers":{"activate()":"0f15f4c0"}},"storageLayout":{"storage":[{"astId":200,"contract":"contracts/Challenge5.sol:UserSystem","label":"users","offset":0,"slot":"0","type":"t_mapping(t_address,t_struct(User)195_storage)"}],"types":{"t_address":{"encoding":"inplace","label":"address","numberOfBytes":"20"},"t_bool":{"encoding":"inplace","label":"bool","numberOfBytes":"1"},"t_enum(Status)187":{"encoding":"inplace","label":"enum UserSystem.Status","numberOfBytes":"1"},"t_mapping(t_address,t_struct(User)195_storage)":{"encoding":"mapping","key":"t_address","label":"mapping(address => struct UserSystem.User)","numberOfBytes":"32","value":"t_struct(User)195_storage"},"t_struct(User)195_storage":{"encoding":"inplace","label":"struct UserSystem.User","members":[{"astId":189,"contract":"contracts/Challenge5.sol:UserSystem","label":"isActive","offset":0,"slot":"0","type":"t_bool"},{"astId":191,"contract":"contracts/Challenge5.sol:UserSystem","label":"amountPaid","offset":0,"slot":"1","type":"t_uint256"},{"astId":194,"contract":"contracts/Challenge5.sol:UserSystem","label":"status","offset":0,"slot":"2","type":"t_enum(Status)187"}],"numberOfBytes":"96"},"t_uint256":{"encoding":"inplace","label":"uint256","numberOfBytes":"32"}}},"userdoc":{"kind":"user","methods":{},"version":1}}}}