{"contracts/Challenge1.sol":{"Challenge1":{"abi":[{"inputs":[],"name":"hasWon","outputs":[{"internalType":"bool","name":"","type":"bool"}],"stateMutability":"view","type":"function"},{"inputs":[],"name":"win","outputs":[],"stateMutability":"nonpayable","type":"function"}],"devdoc":{"kind":"dev","methods":{},"version":1},"evm":{"bytecode":{"linkReferences":{},"object":"608060405234801561001057600080fd5b5060ee8061001f6000396000f3fe6080604052348015600f57600080fd5b506004361060325760003560e01c806320a9158d146037578063473ca96c146051575b600080fd5b603d6059565b604051604891906093565b60405180910390f35b6057606a565b005b60008054906101000a900460ff1681565b60016000806101000a81548160ff021916908315150217905550565b608d8160ac565b82525050565b600060208201905060a660008301846086565b92915050565b6000811515905091905056fea264697066735822122020dec458abb4fbd9d9324601e6f356e5cebcaf246b5a67819ad9ca2fc6e207d064736f6c63430008040033","opcodes":"PUSH1 0x80 PUSH1 0x40 MSTORE CALLVALUE DUP1 ISZERO PUSH2 0x10 JUMPI PUSH1 0x0 DUP1 REVERT JUMPDEST POP PUSH1 0xEE DUP1 PUSH2 0x1F PUSH1 0x0 CODECOPY PUSH1 0x0 RETURN INVALID PUSH1 0x80 PUSH1 0x40 MSTORE CALLVALUE DUP1 ISZERO PUSH1 0xF JUMPI PUSH1 0x0 DUP1 REVERT JUMPDEST POP PUSH1 0x4 CALLDATASIZE LT PUSH1 0x32 JUMPI PUSH1 0x0 CALLDATALOAD PUSH1 0xE0 SHR DUP1 PUSH4 0x20A9158D EQ PUSH1 0x37 JUMPI DUP1 PUSH4 0x473CA96C EQ PUSH1 0x51 JUMPI JUMPDEST PUSH1 0x0 DUP1 REVERT JUMPDEST PUSH1 0x3D PUSH1 0x59 JUMP JUMPDEST PUSH1 0x40 MLOAD PUSH1 0x48 SWAP2 SWAP1 PUSH1 0x93 JUMP JUMPDEST PUSH1 0x40 MLOAD DUP1 SWAP2 SUB SWAP1 RETURN JUMPDEST PUSH1 0x57 PUSH1 0x6A JUMP JUMPDEST STOP JUMPDEST PUSH1 0x0 DUP1 SLOAD SWAP1 PUSH2 0x100 EXP SWAP1 DIV PUSH1 0xFF AND DUP2 JUMP JUMPDEST PUSH1 0x1 PUSH1 0x0 DUP1 PUSH2 0x100 EXP DUP2 SLOAD DUP2 PUSH1 0xFF MUL NOT AND SWAP1 DUP4 ISZERO ISZERO MUL OR SWAP1 SSTORE POP JUMP JUMPDEST PUSH1 0x8D DUP2 PUSH1 0xAC JUMP JUMPDEST DUP3 MSTORE POP POP JUMP JUMPDEST PUSH1 0x0 PUSH1 0x20 DUP3 ADD SWAP1 POP PUSH1 0xA6 PUSH1 0x0 DUP4 ADD DUP5 PUSH1 0x86 JUMP JUMPDEST SWAP3 SWAP2 POP POP JUMP JUMPDEST PUSH1 0x0 DUP2 ISZERO ISZERO SWAP1 POP SWAP2 SWAP1 POP JUMP INVALID LOG2 PUSH5 0x6970667358 0x22 SLT KECCAK256 KECCAK256 0xDE 0xC4 PC 0xAB 0xB4 0xFB 0xD9 0xD9 ORIGIN CHAINID ADD 0xE6 RETURN JUMP 0xE5 0xCE 0xBC 0xAF 0x24 PUSH12 0x5A67819AD9CA2FC6E207D064 PUSH20 0x6F6C634300080400330000000000000000000000 "},"gasEstimates":{"creation":{"codeDepositCost":"47600","executionCost":"99","totalCost":"47699"},"external":{"hasWon()":"1146","win()":"21011"}},"methodIdentifiers":{"hasWon()":"20a9158d","win()":"473ca96c"}},"storageLayout":{"storage":[{"astId":3,"contract":"contracts/Challenge1.sol:Challenge1","label":"hasWon","offset":0,"slot":"0","type":"t_bool"}],"types":{"t_bool":{"encoding":"inplace","label":"bool","numberOfBytes":"1"}}},"userdoc":{"kind":"user","methods":{},"version":1}}}}