{
  "_format": "hh-sol-artifact-1",
  "contractName": "Challenge1",
  "sourceName": "contracts/Challenge1.sol",
  "abi": [
    {
      "inputs": [],
      "name": "hasWon",
      "outputs": [
        {
          "internalType": "bool",
          "name": "",
          "type": "bool"
        }
      ],
      "stateMutability": "view",
      "type": "function"
    },
    {
      "inputs": [],
      "name": "win",
      "outputs": [],
      "stateMutability": "nonpayable",
      "type": "function"
    }
  ],
  "bytecode": "0x608060405234801561001057600080fd5b5060ee8061001f6000396000f3fe6080604052348015600f57600080fd5b506004361060325760003560e01c806320a9158d146037578063473ca96c146051575b600080fd5b603d6059565b604051604891906093565b60405180910390f35b6057606a565b005b60008054906101000a900460ff1681565b60016000806101000a81548160ff021916908315150217905550565b608d8160ac565b82525050565b600060208201905060a660008301846086565b92915050565b6000811515905091905056fea264697066735822122020dec458abb4fbd9d9324601e6f356e5cebcaf246b5a67819ad9ca2fc6e207d064736f6c63430008040033",
  "linkReferences": {},
  "deployedLinkReferences": {}
}