{
  "_format": "hh-sol-artifact-1",
  "contractName": "Challenge5",
  "sourceName": "contracts/Challenge5.sol",
  "abi": [
    {
      "inputs": [],
      "name": "activate",
      "outputs": [],
      "stateMutability": "nonpayable",
      "type": "function"
    },
    {
      "inputs": [],
      "name": "hasWon",
      "outputs": [
        {
          "internalType": "bool",
          "name": "",
          "type": "bool"
        }
      ],
      "stateMutability": "view",
      "type": "function"
    },
    {
      "inputs": [],
      "name": "win",
      "outputs": [],
      "stateMutability": "nonpayable",
      "type": "function"
    },
    {
      "stateMutability": "payable",
      "type": "receive"
    }
  ],
  "bytecode": "0x608060405234801561001057600080fd5b5061048c806100206000396000f3fe6080604052600436106100385760003560e01c80630f15f4c0146101e257806320a9158d146101f9578063473ca96c14610224576101dd565b366101dd5760008060003373ffffffffffffffffffffffffffffffffffffffff1673ffffffffffffffffffffffffffffffffffffffff16815260200190815260200160002090508060000160009054906101000a900460ff1661009a57600080fd5b348160010160008282546100ae91906103bb565b92505081905550633b9aca008160010154101561011d5760008160020160006101000a81548160ff02191690836002811115610113577f4e487b7100000000000000000000000000000000000000000000000000000000600052602160045260246000fd5b02179055506101da565b633b9aca00816001015414156101855760018160020160006101000a81548160ff0219169083600281111561017b577f4e487b7100000000000000000000000000000000000000000000000000000000600052602160045260246000fd5b02179055506101d9565b60028160020160006101000a81548160ff021916908360028111156101d3577f4e487b7100000000000000000000000000000000000000000000000000000000600052602160045260246000fd5b02179055505b5b50005b600080fd5b3480156101ee57600080fd5b506101f761023b565b005b34801561020557600080fd5b5061020e610297565b60405161021b91906103a0565b60405180910390f35b34801561023057600080fd5b506102396102aa565b005b60016000803373ffffffffffffffffffffffffffffffffffffffff1673ffffffffffffffffffffffffffffffffffffffff16815260200190815260200160002060000160006101000a81548160ff021916908315150217905550565b600160009054906101000a900460ff1681565b600160028111156102e4577f4e487b7100000000000000000000000000000000000000000000000000000000600052602160045260246000fd5b6000803373ffffffffffffffffffffffffffffffffffffffff1673ffffffffffffffffffffffffffffffffffffffff16815260200190815260200160002060020160009054906101000a900460ff16600281111561036b577f4e487b7100000000000000000000000000000000000000000000000000000000600052602160045260246000fd5b1461037557600080fd5b60018060006101000a81548160ff021916908315150217905550565b61039a81610411565b82525050565b60006020820190506103b56000830184610391565b92915050565b60006103c68261041d565b91506103d18361041d565b9250827fffffffffffffffffffffffffffffffffffffffffffffffffffffffffffffffff0382111561040657610405610427565b5b828201905092915050565b60008115159050919050565b6000819050919050565b7f4e487b7100000000000000000000000000000000000000000000000000000000600052601160045260246000fdfea26469706673582212208c6f283c446a96b057eab6c73945686840fe106288d9b00ad438e4d5ee0dec6464736f6c63430008040033",
  "linkReferences": {},
  "deployedLinkReferences": {}
}