{
  "_format": "hh-sol-artifact-1",
  "contractName": "UserSystem",
  "sourceName": "contracts/Challenge5.sol",
  "abi": [
    {
      "inputs": [],
      "name": "activate",
      "outputs": [],
      "stateMutability": "nonpayable",
      "type": "function"
    }
  ],
  "bytecode": "0x6080604052348015600f57600080fd5b5060c78061001e6000396000f3fe6080604052348015600f57600080fd5b506004361060285760003560e01c80630f15f4c014602d575b600080fd5b60336035565b005b60016000803373ffffffffffffffffffffffffffffffffffffffff1673ffffffffffffffffffffffffffffffffffffffff16815260200190815260200160002060000160006101000a81548160ff02191690831515021790555056fea26469706673582212203cf9c9ad8619f4a5a94b6298d52f45af5df70f27f4e855cbacf2ab7e05e2554364736f6c63430008040033",
  "linkReferences": {},
  "deployedLinkReferences": {}
}