{
  "_format": "hh-sol-artifact-1",
  "contractName": "Challenge4",
  "sourceName": "contracts/Challenge4.sol",
  "abi": [
    {
      "inputs": [],
      "stateMutability": "nonpayable",
      "type": "constructor"
    },
    {
      "inputs": [
        {
          "internalType": "address",
          "name": "",
          "type": "address"
        }
      ],
      "name": "balances",
      "outputs": [
        {
          "internalType": "uint256",
          "name": "",
          "type": "uint256"
        }
      ],
      "stateMutability": "view",
      "type": "function"
    },
    {
      "inputs": [],
      "name": "hasWon",
      "outputs": [
        {
          "internalType": "bool",
          "name": "",
          "type": "bool"
        }
      ],
      "stateMutability": "view",
      "type": "function"
    },
    {
      "inputs": [
        {
          "internalType": "address",
          "name": "to",
          "type": "address"
        },
        {
          "internalType": "uint256",
          "name": "amount",
          "type": "uint256"
        }
      ],
      "name": "transfer",
      "outputs": [],
      "stateMutability": "nonpayable",
      "type": "function"
    },
    {
      "inputs": [],
      "name": "win",
      "outputs": [],
      "stateMutability": "nonpayable",
      "type": "function"
    }
  ],
  "bytecode": "0x608060405234801561001057600080fd5b5033600160006101000a81548173ffffffffffffffffffffffffffffffffffffffff021916908373ffffffffffffffffffffffffffffffffffffffff160217905550612710600080600160009054906101000a900473ffffffffffffffffffffffffffffffffffffffff1673ffffffffffffffffffffffffffffffffffffffff1673ffffffffffffffffffffffffffffffffffffffff168152602001908152602001600020819055506104aa806100c86000396000f3fe608060405234801561001057600080fd5b506004361061004c5760003560e01c806320a9158d1461005157806327e235e31461006f578063473ca96c1461009f578063a9059cbb146100a9575b600080fd5b6100596100c5565b604051610066919061030f565b60405180910390f35b6100896004803603810190610084919061028c565b6100d8565b604051610096919061032a565b60405180910390f35b6100a76100f0565b005b6100c360048036038101906100be91906102b5565b6101b4565b005b600160149054906101000a900460ff1681565b60006020528060005260406000206000915090505481565b6103e86000803373ffffffffffffffffffffffffffffffffffffffff1673ffffffffffffffffffffffffffffffffffffffff16815260200190815260200160002054101561013d57600080fd5b600160009054906101000a900473ffffffffffffffffffffffffffffffffffffffff1673ffffffffffffffffffffffffffffffffffffffff163373ffffffffffffffffffffffffffffffffffffffff16141561019857600080fd5b60018060146101000a81548160ff021916908315150217905550565b806000808473ffffffffffffffffffffffffffffffffffffffff1673ffffffffffffffffffffffffffffffffffffffff16815260200190815260200160002060008282546102029190610345565b92505081905550806000803373ffffffffffffffffffffffffffffffffffffffff1673ffffffffffffffffffffffffffffffffffffffff1681526020019081526020016000206000828254610257919061039b565b925050819055505050565b60008135905061027181610446565b92915050565b6000813590506102868161045d565b92915050565b60006020828403121561029e57600080fd5b60006102ac84828501610262565b91505092915050565b600080604083850312156102c857600080fd5b60006102d685828601610262565b92505060206102e785828601610277565b9150509250929050565b6102fa816103e1565b82525050565b6103098161040d565b82525050565b600060208201905061032460008301846102f1565b92915050565b600060208201905061033f6000830184610300565b92915050565b60006103508261040d565b915061035b8361040d565b9250827fffffffffffffffffffffffffffffffffffffffffffffffffffffffffffffffff038211156103905761038f610417565b5b828201905092915050565b60006103a68261040d565b91506103b18361040d565b9250828210156103c4576103c3610417565b5b828203905092915050565b60006103da826103ed565b9050919050565b60008115159050919050565b600073ffffffffffffffffffffffffffffffffffffffff82169050919050565b6000819050919050565b7f4e487b7100000000000000000000000000000000000000000000000000000000600052601160045260246000fd5b61044f816103cf565b811461045a57600080fd5b50565b6104668161040d565b811461047157600080fd5b5056fea2646970667358221220438fc2c6d2d281baa2dca3040c9ba641360a846fd4fd76640139ab859b073db364736f6c63430008040033",
  "linkReferences": {},
  "deployedLinkReferences": {}
}