{
  "_format": "hh-sol-artifact-1",
  "contractName": "Challenge2",
  "sourceName": "contracts/Challenge2.sol",
  "abi": [
    {
      "inputs": [],
      "name": "hasWon",
      "outputs": [
        {
          "internalType": "bool",
          "name": "",
          "type": "bool"
        }
      ],
      "stateMutability": "view",
      "type": "function"
    },
    {
      "inputs": [
        {
          "internalType": "uint256",
          "name": "_x",
          "type": "uint256"
        }
      ],
      "name": "setX",
      "outputs": [],
      "stateMutability": "nonpayable",
      "type": "function"
    },
    {
      "inputs": [
        {
          "internalType": "uint256",
          "name": "_y",
          "type": "uint256"
        }
      ],
      "name": "setY",
      "outputs": [],
      "stateMutability": "nonpayable",
      "type": "function"
    },
    {
      "inputs": [],
      "name": "win",
      "outputs": [],
      "stateMutability": "nonpayable",
      "type": "function"
    },
    {
      "inputs": [],
      "name": "x",
      "outputs": [
        {
          "internalType": "uint256",
          "name": "",
          "type": "uint256"
        }
      ],
      "stateMutability": "view",
      "type": "function"
    },
    {
      "inputs": [],
      "name": "y",
      "outputs": [
        {
          "internalType": "uint256",
          "name": "",
          "type": "uint256"
        }
      ],
      "stateMutability": "view",
      "type": "function"
    }
  ],
  "bytecode": "0x608060405234801561001057600080fd5b50610360806100206000396000f3fe608060405234801561001057600080fd5b50600436106100625760003560e01c80630c55699c1461006757806320a9158d146100855780634018d9aa146100a3578063473ca96c146100bf57806368d466b8146100c9578063a56dfe4a146100e5575b600080fd5b61006f610103565b60405161007c9190610203565b60405180910390f35b61008d610109565b60405161009a91906101e8565b60405180910390f35b6100bd60048036038101906100b891906101a1565b61011c565b005b6100c7610126565b005b6100e360048036038101906100de91906101a1565b61017c565b005b6100ed610186565b6040516100fa9190610203565b60405180910390f35b60005481565b600260009054906101000a900460ff1681565b8060008190555050565b600b600154600054610138919061021e565b1461014257600080fd5b60006001546000546101549190610274565b141561015f57600080fd5b6001600260006101000a81548160ff021916908315150217905550565b8060018190555050565b60015481565b60008135905061019b81610313565b92915050565b6000602082840312156101b357600080fd5b60006101c18482850161018c565b91505092915050565b6101d3816102ce565b82525050565b6101e2816102da565b82525050565b60006020820190506101fd60008301846101ca565b92915050565b600060208201905061021860008301846101d9565b92915050565b6000610229826102da565b9150610234836102da565b9250827fffffffffffffffffffffffffffffffffffffffffffffffffffffffffffffffff03821115610269576102686102e4565b5b828201905092915050565b600061027f826102da565b915061028a836102da565b9250817fffffffffffffffffffffffffffffffffffffffffffffffffffffffffffffffff04831182151516156102c3576102c26102e4565b5b828202905092915050565b60008115159050919050565b6000819050919050565b7f4e487b7100000000000000000000000000000000000000000000000000000000600052601160045260246000fd5b61031c816102da565b811461032757600080fd5b5056fea2646970667358221220a33f904e118cb111739255db59c2cdf4cd00997cf9971c89f0e4218912391e5964736f6c63430008040033",
  "linkReferences": {},
  "deployedLinkReferences": {}
}